8=FIX.4.1|9=139|35=8|34=3|49=EXEC|52=20121105-23:24:42|56=BANZAI|6=0|11=1352157882577|14=0|17=1|20=0|31=0|32=0|37=1|38=10000|39=0|54=1|55=MSFT|150=2|151=0|10=059|
8=FIX.4.1|9=153|35=8|34=4|49=EXEC|52=20121105-23:24:42|56=BANZAI|6=12.3|11=1352157882577|14=10000|17=2|20=0|31=12.3|32=10000|37=2|38=10000|39=2|54=1|55=MSFT|150=2|151=0|10=230|
8=FIX.4.1|9=139|35=8|34=5|49=EXEC|52=20121105-23:24:55|56=BANZAI|6=0|11=1352157895032|14=0|17=3|20=0|31=0|32=0|37=3|38=10000|39=0|54=1|55=ORCL|150=2|151=0|10=049|
8=FIX.4.1|9=153|35=8|34=6|49=EXEC|52=20121105-23:24:55|56=BANZAI|6=12.3|11=1352157895032|14=10000|17=4|20=0|31=12.3|32=10000|37=4|38=10000|39=2|54=1|55=ORCL|150=2|151=0|10=220|
8=FIX.4.1|9=138|35=8|34=7|49=EXEC|52=20121105-23:25:12|56=BANZAI|6=0|11=1352157912357|14=0|17=5|20=0|31=0|32=0|37=5|38=10000|39=0|54=1|55=SPY|150=2|151=0|10=252|
8=FIX.4.2|9=240|35=8|34=6|49=DUMMY_INC|52=20150826-23:10:17.744|56=ANOTHER_INC|57=Firm_B|1=Inst_B|6=0|11=best_buy|14=5|17=ITRZ1201508261_24|20=0|22=8|31=1010|32=5|37=ITRZ1201508261_12|38=5|39=2|40=2|41=best_buy|44=1011|54=1|55=ITRZ1|60=20150826-23:10:15.547|150=2|151=0|10=227|
8=FIX.4.1|9=139|35=8|34=5|49=EXEC|52=20121105-23:24:55|56=BANZAI|6=0|11=1352157895032|14=0|17=3|20=0|31=0|32=0|37=3|38=10000|39=0|54=1|55=ORCL|150=2|151=0|10=049|
8=FIX.4.1|9=139|35=8|34=3|49=EXEC|52=20121105-23:24:42|56=BANZAI|6=0|11=1352157882577|14=0|17=1|20=0|31=0|32=0|37=1|38=10000|39=0|54=1|55=MSFT|150=2|151=0|10=059|
8=FIX.4.1|9=153|35=8|34=4|49=EXEC|52=20121105-23:24:42|56=BANZAI|6=12.3|11=1352157882577|14=10000|17=2|20=0|31=12.3|32=10000|37=2|38=10000|39=2|54=1|55=MSFT|150=2|151=0|10=230|
8=FIX.4.1|9=139|35=8|34=5|49=EXEC|52=20121105-23:24:55|56=BANZAI|6=0|11=1352157895032|14=0|17=3|20=0|31=0|32=0|37=3|38=10000|39=0|54=1|55=ORCL|150=2|151=0|10=049|
8=FIX.4.1|9=153|35=8|34=6|49=EXEC|52=20121105-23:24:55|56=BANZAI|6=12.3|11=1352157895032|14=10000|17=4|20=0|31=12.3|32=10000|37=4|38=10000|39=2|54=1|55=ORCL|150=2|151=0|10=220|
8=FIX.4.1|9=138|35=8|34=7|49=EXEC|52=20121105-23:25:12|56=BANZAI|6=0|11=1352157912357|14=0|17=5|20=0|31=0|32=0|37=5|38=10000|39=0|54=1|55=SPY|150=2|151=0|10=252|
8=FIX.4.2|9=240|35=8|34=6|49=DUMMY_INC|52=20150826-23:10:17.744|56=ANOTHER_INC|57=Firm_B|1=Inst_B|6=0|11=best_buy|14=5|17=ITRZ1201508261_24|20=0|22=8|31=1010|32=5|37=ITRZ1201508261_12|38=5|39=2|40=2|41=best_buy|44=1011|54=1|55=ITRZ1|60=20150826-23:10:15.547|150=2|151=0|10=227|
8=FIX.4.1|9=139|35=8|34=5|49=EXEC|52=20121105-23:24:55|56=BANZAI|6=0|11=1352157895032|14=0|17=3|20=0|31=0|32=0|37=3|38=10000|39=0|54=1|55=ORCL|150=2|151=0|10=049|
8=FIXT.1.1|9=189|35=W|34=5|49=DUMMY_INC|52=20150831-20:48:26.535|56=ANOTHER_INC|22=99|48=ITRZ21|262=req_A|268=2|269=0|270=0.01005|271=10|272=20150831|273=20:48:26.514|269=1|270=0.0101|271=2|272=20150831|273=20:48:26.514|10=123|
8=FIXT.1.1|9=140|35=W|34=2|49=DUMMY_INC|52=20150831-17:48:20.890|56=ANOTHER_INC|22=99|48=.AQUA-W|262=golden_path_test|268=1|269=3|270=640754|272=20150831|273=17:48:20.882|10=070|
8=FIX.4.1|9=104|35=F|34=6|49=BANZAI|52=20121105-23:25:16|56=EXEC|11=1352157916437|38=10000|41=1352157912357|54=1|55=SPY|10=198|
8=FIX.4.1|9=104|35=F|34=7|49=BANZAI|52=20121105-23:25:25|56=EXEC|11=1352157925309|38=10000|41=1352157912357|54=1|55=SPY|10=197|
8=FIX.4.2|9=184|35=F|34=2|49=ANOTHER_INC|50=DefaultSenderSubID|52=20150826-23:08:38094|56=DUMMY_INC|1=DefaultAccount|11=clordid_of_cancel|41=part_fill_test_buy|54=1|55=ITER|60=20250407-13:14:15|167=FUT|200=201512|10=147|
8=FIX.4.1|9=82|35=3|34=8|49=EXEC|52=20121105-23:25:16|56=BANZAI|45=6|58=Unsupported message type|10=000|
8=FIX.4.1|9=82|35=3|34=9|49=EXEC|52=20121105-23:25:25|56=BANZAI|45=7|58=Unsupported message type|10=002|
8=FIX.4.1|9=82|35=3|34=9|49=EXEC|52=20121105-23:25:25|56=BANZAI|45=7|58=Unsupported message type|10=002|
8=FIX.4.1|9=153|35=8|34=6|49=EXEC|52=20121105-23:24:55|56=BANZAI|6=12.3|11=1352157895032|14=10000|17=4|20=0|31=12.3|32=10000|37=4|38=10000|39=2|54=1|55=ORCL|150=2|151=0|10=220|
